{
  "contractName": "FoodSecurity",
  "abi": [
    {
      "anonymous": false,
      "inputs": [
        {
          "indexed": false,
          "internalType": "uint256",
          "name": "id",
          "type": "uint256"
        }
      ],
      "name": "BatchApproved",
      "type": "event"
    },
    {
      "anonymous": false,
      "inputs": [
        {
          "indexed": false,
          "internalType": "uint256",
          "name": "id",
          "type": "uint256"
        },
        {
          "indexed": false,
          "internalType": "address",
          "name": "farmer",
          "type": "address"
        },
        {
          "indexed": false,
          "internalType": "string",
          "name": "cropType",
          "type": "string"
        },
        {
          "indexed": false,
          "internalType": "uint256",
          "name": "quantity",
          "type": "uint256"
        }
      ],
      "name": "BatchCreated",
      "type": "event"
    },
    {
      "anonymous": false,
      "inputs": [
        {
          "indexed": false,
          "internalType": "uint256",
          "name": "id",
          "type": "uint256"
        },
        {
          "indexed": false,
          "internalType": "address",
          "name": "consumer",
          "type": "address"
        }
      ],
      "name": "BatchDelivered",
      "type": "event"
    },
    {
      "anonymous": false,
      "inputs": [
        {
          "indexed": false,
          "internalType": "uint256",
          "name": "id",
          "type": "uint256"
        },
        {
          "indexed": false,
          "internalType": "address",
          "name": "transporter",
          "type": "address"
        }
      ],
      "name": "BatchPicked",
      "type": "event"
    },
    {
      "anonymous": false,
      "inputs": [
        {
          "indexed": false,
          "internalType": "uint256",
          "name": "id",
          "type": "uint256"
        },
        {
          "indexed": false,
          "internalType": "address",
          "name": "distributor",
          "type": "address"
        }
      ],
      "name": "BatchReceived",
      "type": "event"
    },
    {
      "anonymous": false,
      "inputs": [
        {
          "indexed": false,
          "internalType": "uint256",
          "name": "id",
          "type": "uint256"
        },
        {
          "indexed": false,
          "internalType": "int256",
          "name": "temperature",
          "type": "int256"
        }
      ],
      "name": "TemperatureUpdated",
      "type": "event"
    },
    {
      "inputs": [],
      "name": "batchCount",
      "outputs": [
        {
          "internalType": "uint256",
          "name": "",
          "type": "uint256"
        }
      ],
      "stateMutability": "view",
      "type": "function",
      "constant": true
    },
    {
      "inputs": [
        {
          "internalType": "uint256",
          "name": "",
          "type": "uint256"
        }
      ],
      "name": "batches",
      "outputs": [
        {
          "internalType": "uint256",
          "name": "id",
          "type": "uint256"
        },
        {
          "internalType": "address",
          "name": "farmer",
          "type": "address"
        },
        {
          "internalType": "string",
          "name": "cropType",
          "type": "string"
        },
        {
          "internalType": "uint256",
          "name": "quantity",
          "type": "uint256"
        },
        {
          "internalType": "bool",
          "name": "approvedByManager",
          "type": "bool"
        },
        {
          "internalType": "bool",
          "name": "pickedByTransporter",
          "type": "bool"
        },
        {
          "internalType": "bool",
          "name": "receivedByDistributor",
          "type": "bool"
        },
        {
          "internalType": "bool",
          "name": "deliveredToConsumer",
          "type": "bool"
        },
        {
          "internalType": "int256",
          "name": "temperature",
          "type": "int256"
        }
      ],
      "stateMutability": "view",
      "type": "function",
      "constant": true
    },
    {
      "inputs": [
        {
          "internalType": "string",
          "name": "_cropType",
          "type": "string"
        },
        {
          "internalType": "uint256",
          "name": "_quantity",
          "type": "uint256"
        }
      ],
      "name": "createBatch",
      "outputs": [],
      "stateMutability": "nonpayable",
      "type": "function"
    },
    {
      "inputs": [
        {
          "internalType": "uint256",
          "name": "_id",
          "type": "uint256"
        }
      ],
      "name": "approveBatch",
      "outputs": [],
      "stateMutability": "nonpayable",
      "type": "function"
    },
    {
      "inputs": [
        {
          "internalType": "uint256",
          "name": "_id",
          "type": "uint256"
        },
        {
          "internalType": "int256",
          "name": "_temperature",
          "type": "int256"
        }
      ],
      "name": "updateTemperature",
      "outputs": [],
      "stateMutability": "nonpayable",
      "type": "function"
    },
    {
      "inputs": [
        {
          "internalType": "uint256",
          "name": "_id",
          "type": "uint256"
        }
      ],
      "name": "pickBatch",
      "outputs": [],
      "stateMutability": "nonpayable",
      "type": "function"
    },
    {
      "inputs": [
        {
          "internalType": "uint256",
          "name": "_id",
          "type": "uint256"
        }
      ],
      "name": "receiveBatch",
      "outputs": [],
      "stateMutability": "nonpayable",
      "type": "function"
    },
    {
      "inputs": [
        {
          "internalType": "uint256",
          "name": "_id",
          "type": "uint256"
        }
      ],
      "name": "confirmDelivery",
      "outputs": [],
      "stateMutability": "nonpayable",
      "type": "function"
    },
    {
      "inputs": [
        {
          "internalType": "uint256",
          "name": "_id",
          "type": "uint256"
        }
      ],
      "name": "getBatch",
      "outputs": [
        {
          "internalType": "address",
          "name": "farmer",
          "type": "address"
        },
        {
          "internalType": "string",
          "name": "cropType",
          "type": "string"
        },
        {
          "internalType": "uint256",
          "name": "quantity",
          "type": "uint256"
        },
        {
          "internalType": "bool",
          "name": "approvedByManager",
          "type": "bool"
        },
        {
          "internalType": "bool",
          "name": "pickedByTransporter",
          "type": "bool"
        },
        {
          "internalType": "bool",
          "name": "receivedByDistributor",
          "type": "bool"
        },
        {
          "internalType": "bool",
          "name": "deliveredToConsumer",
          "type": "bool"
        },
        {
          "internalType": "int256",
          "name": "temperature",
          "type": "int256"
        }
      ],
      "stateMutability": "view",
      "type": "function",
      "constant": true
    }
  ],
  "bytecode": "0x608060405234801561000f575f80fd5b5061113d8061001d5f395ff3fe608060405234801561000f575f80fd5b5060043610610091575f3560e01c8063b71f05e011610064578063b71f05e01461013e578063dd235d9d1461015a578063e116230614610176578063e9cee4b914610192578063fd84cb97146101ae57610091565b806306f13056146100955780635ac44282146100b3578063b13ea989146100ea578063b32c4d8d14610106575b5f80fd5b61009d6101ca565b6040516100aa91906108b5565b60405180910390f35b6100cd60048036038101906100c89190610909565b6101d0565b6040516100e1989796959493929190610a2f565b60405180910390f35b61010460048036038101906100ff9190610909565b6103aa565b005b610120600480360381019061011b9190610909565b610417565b60405161013599989796959493929190610ab2565b60405180910390f35b61015860048036038101906101539190610b6e565b610538565b005b610174600480360381019061016f9190610909565b610592565b005b610190600480360381019061018b9190610cd8565b6105fc565b005b6101ac60048036038101906101a79190610909565b6107c3565b005b6101c860048036038101906101c39190610909565b610830565b005b60015481565b5f60605f805f805f805f805f8b81526020019081526020015f20604051806101200160405290815f8201548152602001600182015f9054906101000a900473ffffffffffffffffffffffffffffffffffffffff1673ffffffffffffffffffffffffffffffffffffffff1673ffffffffffffffffffffffffffffffffffffffff16815260200160028201805461026490610d5f565b80601f016020809104026020016040519081016040528092919081815260200182805461029090610d5f565b80156102db5780601f106102b2576101008083540402835291602001916102db565b820191905f5260205f20905b8154815290600101906020018083116102be57829003601f168201915b5050505050815260200160038201548152602001600482015f9054906101000a900460ff161515151581526020016004820160019054906101000a900460ff161515151581526020016004820160029054906101000a900460ff161515151581526020016004820160039054906101000a900460ff16151515158152602001600582015481525050905080602001518160400151826060015183608001518460a001518560c001518660e001518761010001519850985098509850985098509850985050919395975091939597565b5f805f8381526020019081526020015f20905060018160040160016101000a81548160ff0219169083151502179055507fe5181616a43bb66402631e9df3f2f67212bcdf3b8c734b2e44c015391f59cb6d823360405161040b929190610d8f565b60405180910390a15050565b5f602052805f5260405f205f91509050805f015490806001015f9054906101000a900473ffffffffffffffffffffffffffffffffffffffff169080600201805461046090610d5f565b80601f016020809104026020016040519081016040528092919081815260200182805461048c90610d5f565b80156104d75780601f106104ae576101008083540402835291602001916104d7565b820191905f5260205f20905b8154815290600101906020018083116104ba57829003601f168201915b505050505090806003015490806004015f9054906101000a900460ff16908060040160019054906101000a900460ff16908060040160029054906101000a900460ff16908060040160039054906101000a900460ff16908060050154905089565b5f805f8481526020019081526020015f2090508181600501819055507f86060b1a4b3437d61d5cde73f6f116afdf6aac4e6fb134adc57c9ee8eca1c3208383604051610585929190610db6565b60405180910390a1505050565b5f805f8381526020019081526020015f2090506001816004015f6101000a81548160ff0219169083151502179055507fbee96e551432a70dbd56d04b87c944850a64a94ec2be1af1052d1c03a463875b826040516105f091906108b5565b60405180910390a15050565b60015f81548092919061060e90610e0a565b919050555060405180610120016040528060015481526020013373ffffffffffffffffffffffffffffffffffffffff1681526020018381526020018281526020015f151581526020015f151581526020015f151581526020015f151581526020015f8152505f8060015481526020019081526020015f205f820151815f01556020820151816001015f6101000a81548173ffffffffffffffffffffffffffffffffffffffff021916908373ffffffffffffffffffffffffffffffffffffffff16021790555060408201518160020190816106e89190610fee565b50606082015181600301556080820151816004015f6101000a81548160ff02191690831515021790555060a08201518160040160016101000a81548160ff02191690831515021790555060c08201518160040160026101000a81548160ff02191690831515021790555060e08201518160040160036101000a81548160ff02191690831515021790555061010082015181600501559050507f24d4dd2cd73442ce7ba8d012afd0ab2601a6b3c593b368a0a91b1bac5d5d27f26001543384846040516107b794939291906110bd565b60405180910390a15050565b5f805f8381526020019081526020015f20905060018160040160026101000a81548160ff0219169083151502179055507f3ee410ca09d61e8af6049b2d9a91a1bc39d01bdeffbac1a042c97c176ecc4c248233604051610824929190610d8f565b60405180910390a15050565b5f805f8381526020019081526020015f20905060018160040160036101000a81548160ff0219169083151502179055507fb2a6072709f2e5946e75231144f7906d5f74c33c928efc93550d2cf45cda7e828233604051610891929190610d8f565b60405180910390a15050565b5f819050919050565b6108af8161089d565b82525050565b5f6020820190506108c85f8301846108a6565b92915050565b5f604051905090565b5f80fd5b5f80fd5b6108e88161089d565b81146108f2575f80fd5b50565b5f81359050610903816108df565b92915050565b5f6020828403121561091e5761091d6108d7565b5b5f61092b848285016108f5565b91505092915050565b5f73ffffffffffffffffffffffffffffffffffffffff82169050919050565b5f61095d82610934565b9050919050565b61096d81610953565b82525050565b5f81519050919050565b5f82825260208201905092915050565b5f5b838110156109aa57808201518184015260208101905061098f565b5f8484015250505050565b5f601f19601f8301169050919050565b5f6109cf82610973565b6109d9818561097d565b93506109e981856020860161098d565b6109f2816109b5565b840191505092915050565b5f8115159050919050565b610a11816109fd565b82525050565b5f819050919050565b610a2981610a17565b82525050565b5f61010082019050610a435f83018b610964565b8181036020830152610a55818a6109c5565b9050610a6460408301896108a6565b610a716060830188610a08565b610a7e6080830187610a08565b610a8b60a0830186610a08565b610a9860c0830185610a08565b610aa560e0830184610a20565b9998505050505050505050565b5f61012082019050610ac65f83018c6108a6565b610ad3602083018b610964565b8181036040830152610ae5818a6109c5565b9050610af460608301896108a6565b610b016080830188610a08565b610b0e60a0830187610a08565b610b1b60c0830186610a08565b610b2860e0830185610a08565b610b36610100830184610a20565b9a9950505050505050505050565b610b4d81610a17565b8114610b57575f80fd5b50565b5f81359050610b6881610b44565b92915050565b5f8060408385031215610b8457610b836108d7565b5b5f610b91858286016108f5565b9250506020610ba285828601610b5a565b9150509250929050565b5f80fd5b5f80fd5b7f4e487b71000000000000000000000000000000000000000000000000000000005f52604160045260245ffd5b610bea826109b5565b810181811067ffffffffffffffff82111715610c0957610c08610bb4565b5b80604052505050565b5f610c1b6108ce565b9050610c278282610be1565b919050565b5f67ffffffffffffffff821115610c4657610c45610bb4565b5b610c4f826109b5565b9050602081019050919050565b828183375f83830152505050565b5f610c7c610c7784610c2c565b610c12565b905082815260208101848484011115610c9857610c97610bb0565b5b610ca3848285610c5c565b509392505050565b5f82601f830112610cbf57610cbe610bac565b5b8135610ccf848260208601610c6a565b91505092915050565b5f8060408385031215610cee57610ced6108d7565b5b5f83013567ffffffffffffffff811115610d0b57610d0a6108db565b5b610d1785828601610cab565b9250506020610d28858286016108f5565b9150509250929050565b7f4e487b71000000000000000000000000000000000000000000000000000000005f52602260045260245ffd5b5f6002820490506001821680610d7657607f821691505b602082108103610d8957610d88610d32565b5b50919050565b5f604082019050610da25f8301856108a6565b610daf6020830184610964565b9392505050565b5f604082019050610dc95f8301856108a6565b610dd66020830184610a20565b9392505050565b7f4e487b71000000000000000000000000000000000000000000000000000000005f52601160045260245ffd5b5f610e148261089d565b91507fffffffffffffffffffffffffffffffffffffffffffffffffffffffffffffffff8203610e4657610e45610ddd565b5b600182019050919050565b5f819050815f5260205f209050919050565b5f6020601f8301049050919050565b5f82821b905092915050565b5f60088302610ead7fffffffffffffffffffffffffffffffffffffffffffffffffffffffffffffffff82610e72565b610eb78683610e72565b95508019841693508086168417925050509392505050565b5f819050919050565b5f610ef2610eed610ee88461089d565b610ecf565b61089d565b9050919050565b5f819050919050565b610f0b83610ed8565b610f1f610f1782610ef9565b848454610e7e565b825550505050565b5f90565b610f33610f27565b610f3e818484610f02565b505050565b5b81811015610f6157610f565f82610f2b565b600181019050610f44565b5050565b601f821115610fa657610f7781610e51565b610f8084610e63565b81016020851015610f8f578190505b610fa3610f9b85610e63565b830182610f43565b50505b505050565b5f82821c905092915050565b5f610fc65f1984600802610fab565b1980831691505092915050565b5f610fde8383610fb7565b9150826002028217905092915050565b610ff782610973565b67ffffffffffffffff8111156110105761100f610bb4565b5b61101a8254610d5f565b611025828285610f65565b5f60209050601f831160018114611056575f8415611044578287015190505b61104e8582610fd3565b8655506110b5565b601f19841661106486610e51565b5f5b8281101561108b57848901518255600182019150602085019450602081019050611066565b868310156110a857848901516110a4601f891682610fb7565b8355505b6001600288020188555050505b505050505050565b5f6080820190506110d05f8301876108a6565b6110dd6020830186610964565b81810360408301526110ef81856109c5565b90506110fe60608301846108a6565b9594505050505056fea26469706673582212202373710d98b7f50e355d15e04e9f60da22672c843b7ddadfaac2424c164dfef364736f6c63430008140033",
  "immutableReferences": {},
  "source": "// SPDX-License-Identifier: MIT\npragma solidity ^0.8.0;\n\ncontract FoodSecurity {\n    struct FoodBatch {\n        uint256 id;\n        address farmer;\n        string cropType;\n        uint256 quantity; // in kg\n        bool approvedByManager;\n        bool pickedByTransporter;\n        bool receivedByDistributor;\n        bool deliveredToConsumer;\n        int256 temperature; // latest temperature record\n    }\n\n    mapping(uint256 => FoodBatch) public batches;\n    uint256 public batchCount;\n\n    // ---- Events ----\n    event BatchCreated(uint256 id, address farmer, string cropType, uint256 quantity);\n    event BatchApproved(uint256 id);\n    event BatchPicked(uint256 id, address transporter);\n    event BatchReceived(uint256 id, address distributor);\n    event BatchDelivered(uint256 id, address consumer);\n    event TemperatureUpdated(uint256 id, int256 temperature);\n\n    // ---- FARMER (anyone can call) ----\n    function createBatch(string memory _cropType, uint256 _quantity) public {\n        batchCount++;\n        batches[batchCount] = FoodBatch({\n            id: batchCount,\n            farmer: msg.sender,\n            cropType: _cropType,\n            quantity: _quantity,\n            approvedByManager: false,\n            pickedByTransporter: false,\n            receivedByDistributor: false,\n            deliveredToConsumer: false,\n            temperature: 0\n        });\n\n        emit BatchCreated(batchCount, msg.sender, _cropType, _quantity);\n    }\n\n    // ---- MANAGER (anyone can call) ----\n    function approveBatch(uint256 _id) public {\n        FoodBatch storage b = batches[_id];\n        b.approvedByManager = true;\n        emit BatchApproved(_id);\n    }\n\n    function updateTemperature(uint256 _id, int256 _temperature) public {\n        FoodBatch storage b = batches[_id];\n        b.temperature = _temperature;\n        emit TemperatureUpdated(_id, _temperature);\n    }\n\n    // ---- TRANSPORTER (anyone can call) ----\n    function pickBatch(uint256 _id) public {\n        FoodBatch storage b = batches[_id];\n        b.pickedByTransporter = true;\n        emit BatchPicked(_id, msg.sender);\n    }\n\n    // ---- DISTRIBUTOR (anyone can call) ----\n    function receiveBatch(uint256 _id) public {\n        FoodBatch storage b = batches[_id];\n        b.receivedByDistributor = true;\n        emit BatchReceived(_id, msg.sender);\n    }\n\n    // ---- CONSUMER (anyone can call) ----\n    function confirmDelivery(uint256 _id) public {\n        FoodBatch storage b = batches[_id];\n        b.deliveredToConsumer = true;\n        emit BatchDelivered(_id, msg.sender);\n    }\n\n    // ---- VIEW FUNCTION ----\n    function getBatch(uint256 _id)\n        public\n        view\n        returns (\n            address farmer,\n            string memory cropType,\n            uint256 quantity,\n            bool approvedByManager,\n            bool pickedByTransporter,\n            bool receivedByDistributor,\n            bool deliveredToConsumer,\n            int256 temperature\n        )\n    {\n        FoodBatch memory b = batches[_id];\n        return (\n            b.farmer,\n            b.cropType,\n            b.quantity,\n            b.approvedByManager,\n            b.pickedByTransporter,\n            b.receivedByDistributor,\n            b.deliveredToConsumer,\n            b.temperature\n        );\n    }\n}\n",
  "sourcePath": "F:\\SEMESTER-7\\BLOCKHAIN\\AP_BC\\contracts\\foodsecurilty.sol",
  "compiler": {
    "name": "solc",
    "version": "0.8.20+commit.a1b79de6.Emscripten.clang"
  },
  "schemaVersion": "3.4.16",
  "updatedAt": "2025-10-26T17:47:36.776Z",
  "networkType": "ethereum",
  "devdoc": {
    "kind": "dev",
    "methods": {},
    "version": 1
  },
  "userdoc": {
    "kind": "user",
    "methods": {},
    "version": 1
  }
}